{
	"contracts/array.sol": {
		"SimpleList": {
			"abi": [
				{
					"inputs": [
						{
							"internalType": "string",
							"name": "_name",
							"type": "string"
						},
						{
							"internalType": "uint256",
							"name": "_quantity",
							"type": "uint256"
						}
					],
					"name": "addItem",
					"outputs": [],
					"stateMutability": "nonpayable",
					"type": "function"
				},
				{
					"inputs": [
						{
							"internalType": "uint256",
							"name": "_index",
							"type": "uint256"
						}
					],
					"name": "getItem",
					"outputs": [
						{
							"internalType": "string",
							"name": "name",
							"type": "string"
						},
						{
							"internalType": "uint256",
							"name": "quantity",
							"type": "uint256"
						}
					],
					"stateMutability": "view",
					"type": "function"
				},
				{
					"inputs": [],
					"name": "getItemCount",
					"outputs": [
						{
							"internalType": "uint256",
							"name": "",
							"type": "uint256"
						}
					],
					"stateMutability": "view",
					"type": "function"
				},
				{
					"inputs": [
						{
							"internalType": "uint256",
							"name": "",
							"type": "uint256"
						}
					],
					"name": "items",
					"outputs": [
						{
							"internalType": "string",
							"name": "name",
							"type": "string"
						},
						{
							"internalType": "uint256",
							"name": "quantity",
							"type": "uint256"
						}
					],
					"stateMutability": "view",
					"type": "function"
				}
			],
			"devdoc": {
				"kind": "dev",
				"methods": {},
				"version": 1
			},
			"evm": {
				"assembly": "    /* \"contracts/array.sol\":60:607  contract SimpleList {... */\n  mstore(0x40, 0x80)\n  callvalue\n  dup1\n  iszero\n  tag_1\n  jumpi\n  0x00\n  dup1\n  revert\ntag_1:\n  pop\n  dataSize(sub_0)\n  dup1\n  dataOffset(sub_0)\n  0x00\n  codecopy\n  0x00\n  return\nstop\n\nsub_0: assembly {\n        /* \"contracts/array.sol\":60:607  contract SimpleList {... */\n      mstore(0x40, 0x80)\n      callvalue\n      dup1\n      iszero\n      tag_1\n      jumpi\n      0x00\n      dup1\n      revert\n    tag_1:\n      pop\n      jumpi(tag_2, lt(calldatasize, 0x04))\n      shr(0xe0, calldataload(0x00))\n      dup1\n      0x3129e773\n      eq\n      tag_3\n      jumpi\n      dup1\n      0x62d6bbdf\n      eq\n      tag_4\n      jumpi\n      dup1\n      0x7749cf23\n      eq\n      tag_5\n      jumpi\n      dup1\n      0xbfb231d2\n      eq\n      tag_6\n      jumpi\n    tag_2:\n      0x00\n      dup1\n      revert\n        /* \"contracts/array.sol\":317:504  function getItem(uint256 _index) public view returns (string memory name, uint256 quantity) {... */\n    tag_3:\n      tag_7\n      0x04\n      dup1\n      calldatasize\n      sub\n      dup2\n      add\n      swap1\n      tag_8\n      swap2\n      swap1\n      tag_9\n      jump\t// in\n    tag_8:\n      tag_10\n      jump\t// in\n    tag_7:\n      mload(0x40)\n      tag_11\n      swap3\n      swap2\n      swap1\n      tag_12\n      jump\t// in\n    tag_11:\n      mload(0x40)\n      dup1\n      swap2\n      sub\n      swap1\n      return\n        /* \"contracts/array.sol\":192:309  function addItem(string memory _name, uint256 _quantity) public {... */\n    tag_4:\n      tag_13\n      0x04\n      dup1\n      calldatasize\n      sub\n      dup2\n      add\n      swap1\n      tag_14\n      swap2\n      swap1\n      tag_15\n      jump\t// in\n    tag_14:\n      tag_16\n      jump\t// in\n    tag_13:\n      stop\n        /* \"contracts/array.sol\":512:604  function getItemCount() public view returns (uint256) {... */\n    tag_5:\n      tag_17\n      tag_18\n      jump\t// in\n    tag_17:\n      mload(0x40)\n      tag_19\n      swap2\n      swap1\n      tag_20\n      jump\t// in\n    tag_19:\n      mload(0x40)\n      dup1\n      swap2\n      sub\n      swap1\n      return\n        /* \"contracts/array.sol\":164:183  Item[] public items */\n    tag_6:\n      tag_21\n      0x04\n      dup1\n      calldatasize\n      sub\n      dup2\n      add\n      swap1\n      tag_22\n      swap2\n      swap1\n      tag_9\n      jump\t// in\n    tag_22:\n      tag_23\n      jump\t// in\n    tag_21:\n      mload(0x40)\n      tag_24\n      swap3\n      swap2\n      swap1\n      tag_12\n      jump\t// in\n    tag_24:\n      mload(0x40)\n      dup1\n      swap2\n      sub\n      swap1\n      return\n        /* \"contracts/array.sol\":317:504  function getItem(uint256 _index) public view returns (string memory name, uint256 quantity) {... */\n    tag_10:\n        /* \"contracts/array.sol\":371:389  string memory name */\n      0x60\n        /* \"contracts/array.sol\":391:407  uint256 quantity */\n      0x00\n        /* \"contracts/array.sol\":420:436  Item memory item */\n      dup1\n        /* \"contracts/array.sol\":439:444  items */\n      0x00\n        /* \"contracts/array.sol\":445:451  _index */\n      dup5\n        /* \"contracts/array.sol\":439:452  items[_index] */\n      dup2\n      sload\n      dup2\n      lt\n      tag_26\n      jumpi\n      tag_27\n      tag_28\n      jump\t// in\n    tag_27:\n    tag_26:\n      swap1\n      0x00\n      mstore\n      keccak256(0x00, 0x20)\n      swap1\n      0x02\n      mul\n      add\n        /* \"contracts/array.sol\":420:452  Item memory item = items[_index] */\n      mload(0x40)\n      dup1\n      0x40\n      add\n      0x40\n      mstore\n      swap1\n      dup2\n      0x00\n      dup3\n      add\n      dup1\n      sload\n      tag_30\n      swap1\n      tag_31\n      jump\t// in\n    tag_30:\n      dup1\n      0x1f\n      add\n      0x20\n      dup1\n      swap2\n      div\n      mul\n      0x20\n      add\n      mload(0x40)\n      swap1\n      dup2\n      add\n      0x40\n      mstore\n      dup1\n      swap3\n      swap2\n      swap1\n      dup2\n      dup2\n      mstore\n      0x20\n      add\n      dup3\n      dup1\n      sload\n      tag_32\n      swap1\n      tag_31\n      jump\t// in\n    tag_32:\n      dup1\n      iszero\n      tag_33\n      jumpi\n      dup1\n      0x1f\n      lt\n      tag_34\n      jumpi\n      0x0100\n      dup1\n      dup4\n      sload\n      div\n      mul\n      dup4\n      mstore\n      swap2\n      0x20\n      add\n      swap2\n      jump(tag_33)\n    tag_34:\n      dup3\n      add\n      swap2\n      swap1\n      0x00\n      mstore\n      keccak256(0x00, 0x20)\n      swap1\n    tag_35:\n      dup2\n      sload\n      dup2\n      mstore\n      swap1\n      0x01\n      add\n      swap1\n      0x20\n      add\n      dup1\n      dup4\n      gt\n      tag_35\n      jumpi\n      dup3\n      swap1\n      sub\n      0x1f\n      and\n      dup3\n      add\n      swap2\n    tag_33:\n      pop\n      pop\n      pop\n      pop\n      pop\n      dup2\n      mstore\n      0x20\n      add\n      0x01\n      dup3\n      add\n      sload\n      dup2\n      mstore\n      pop\n      pop\n      swap1\n      pop\n        /* \"contracts/array.sol\":471:475  item */\n      dup1\n        /* \"contracts/array.sol\":471:480  item.name */\n      0x00\n      add\n      mload\n        /* \"contracts/array.sol\":482:486  item */\n      dup2\n        /* \"contracts/array.sol\":482:495  item.quantity */\n      0x20\n      add\n      mload\n        /* \"contracts/array.sol\":463:496  return (item.name, item.quantity) */\n      swap3\n      pop\n      swap3\n      pop\n      pop\n        /* \"contracts/array.sol\":317:504  function getItem(uint256 _index) public view returns (string memory name, uint256 quantity) {... */\n      swap2\n      pop\n      swap2\n      jump\t// out\n        /* \"contracts/array.sol\":192:309  function addItem(string memory _name, uint256 _quantity) public {... */\n    tag_16:\n        /* \"contracts/array.sol\":267:272  items */\n      0x00\n        /* \"contracts/array.sol\":278:300  Item(_name, _quantity) */\n      mload(0x40)\n      dup1\n      0x40\n      add\n      0x40\n      mstore\n      dup1\n        /* \"contracts/array.sol\":283:288  _name */\n      dup5\n        /* \"contracts/array.sol\":278:300  Item(_name, _quantity) */\n      dup2\n      mstore\n      0x20\n      add\n        /* \"contracts/array.sol\":290:299  _quantity */\n      dup4\n        /* \"contracts/array.sol\":278:300  Item(_name, _quantity) */\n      dup2\n      mstore\n      pop\n        /* \"contracts/array.sol\":267:301  items.push(Item(_name, _quantity)) */\n      swap1\n      dup1\n      0x01\n      dup2\n      sload\n      add\n      dup1\n      dup3\n      sstore\n      dup1\n      swap2\n      pop\n      pop\n      0x01\n      swap1\n      sub\n      swap1\n      0x00\n      mstore\n      keccak256(0x00, 0x20)\n      swap1\n      0x02\n      mul\n      add\n      0x00\n      swap1\n      swap2\n      swap1\n      swap2\n      swap1\n      swap2\n      pop\n      0x00\n      dup3\n      add\n      mload\n      dup2\n      0x00\n      add\n      swap1\n      dup2\n      tag_38\n      swap2\n      swap1\n      tag_39\n      jump\t// in\n    tag_38:\n      pop\n      0x20\n      dup3\n      add\n      mload\n      dup2\n      0x01\n      add\n      sstore\n      pop\n      pop\n        /* \"contracts/array.sol\":192:309  function addItem(string memory _name, uint256 _quantity) public {... */\n      pop\n      pop\n      jump\t// out\n        /* \"contracts/array.sol\":512:604  function getItemCount() public view returns (uint256) {... */\n    tag_18:\n        /* \"contracts/array.sol\":557:564  uint256 */\n      0x00\n        /* \"contracts/array.sol\":584:589  items */\n      dup1\n        /* \"contracts/array.sol\":584:596  items.length */\n      dup1\n      sload\n      swap1\n      pop\n        /* \"contracts/array.sol\":577:596  return items.length */\n      swap1\n      pop\n        /* \"contracts/array.sol\":512:604  function getItemCount() public view returns (uint256) {... */\n      swap1\n      jump\t// out\n        /* \"contracts/array.sol\":164:183  Item[] public items */\n    tag_23:\n      0x00\n      dup2\n      dup2\n      sload\n      dup2\n      lt\n      tag_41\n      jumpi\n      0x00\n      dup1\n      revert\n    tag_41:\n      swap1\n      0x00\n      mstore\n      keccak256(0x00, 0x20)\n      swap1\n      0x02\n      mul\n      add\n      0x00\n      swap2\n      pop\n      swap1\n      pop\n      dup1\n      0x00\n      add\n      dup1\n      sload\n      tag_43\n      swap1\n      tag_31\n      jump\t// in\n    tag_43:\n      dup1\n      0x1f\n      add\n      0x20\n      dup1\n      swap2\n      div\n      mul\n      0x20\n      add\n      mload(0x40)\n      swap1\n      dup2\n      add\n      0x40\n      mstore\n      dup1\n      swap3\n      swap2\n      swap1\n      dup2\n      dup2\n      mstore\n      0x20\n      add\n      dup3\n      dup1\n      sload\n      tag_44\n      swap1\n      tag_31\n      jump\t// in\n    tag_44:\n      dup1\n      iszero\n      tag_45\n      jumpi\n      dup1\n      0x1f\n      lt\n      tag_46\n      jumpi\n      0x0100\n      dup1\n      dup4\n      sload\n      div\n      mul\n      dup4\n      mstore\n      swap2\n      0x20\n      add\n      swap2\n      jump(tag_45)\n    tag_46:\n      dup3\n      add\n      swap2\n      swap1\n      0x00\n      mstore\n      keccak256(0x00, 0x20)\n      swap1\n    tag_47:\n      dup2\n      sload\n      dup2\n      mstore\n      swap1\n      0x01\n      add\n      swap1\n      0x20\n      add\n      dup1\n      dup4\n      gt\n      tag_47\n      jumpi\n      dup3\n      swap1\n      sub\n      0x1f\n      and\n      dup3\n      add\n      swap2\n    tag_45:\n      pop\n      pop\n      pop\n      pop\n      pop\n      swap1\n      dup1\n      0x01\n      add\n      sload\n      swap1\n      pop\n      dup3\n      jump\t// out\n        /* \"#utility.yul\":7:82   */\n    tag_48:\n        /* \"#utility.yul\":40:46   */\n      0x00\n        /* \"#utility.yul\":73:75   */\n      0x40\n        /* \"#utility.yul\":67:76   */\n      mload\n        /* \"#utility.yul\":57:76   */\n      swap1\n      pop\n        /* \"#utility.yul\":7:82   */\n      swap1\n      jump\t// out\n        /* \"#utility.yul\":88:205   */\n    tag_49:\n        /* \"#utility.yul\":197:198   */\n      0x00\n        /* \"#utility.yul\":194:195   */\n      dup1\n        /* \"#utility.yul\":187:199   */\n      revert\n        /* \"#utility.yul\":211:328   */\n    tag_50:\n        /* \"#utility.yul\":320:321   */\n      0x00\n        /* \"#utility.yul\":317:318   */\n      dup1\n        /* \"#utility.yul\":310:322   */\n      revert\n        /* \"#utility.yul\":334:411   */\n    tag_51:\n        /* \"#utility.yul\":371:378   */\n      0x00\n        /* \"#utility.yul\":400:405   */\n      dup2\n        /* \"#utility.yul\":389:405   */\n      swap1\n      pop\n        /* \"#utility.yul\":334:411   */\n      swap2\n      swap1\n      pop\n      jump\t// out\n        /* \"#utility.yul\":417:539   */\n    tag_52:\n        /* \"#utility.yul\":490:514   */\n      tag_91\n        /* \"#utility.yul\":508:513   */\n      dup2\n        /* \"#utility.yul\":490:514   */\n      tag_51\n      jump\t// in\n    tag_91:\n        /* \"#utility.yul\":483:488   */\n      dup2\n        /* \"#utility.yul\":480:515   */\n      eq\n        /* \"#utility.yul\":470:533   */\n      tag_92\n      jumpi\n        /* \"#utility.yul\":529:530   */\n      0x00\n        /* \"#utility.yul\":526:527   */\n      dup1\n        /* \"#utility.yul\":519:531   */\n      revert\n        /* \"#utility.yul\":470:533   */\n    tag_92:\n        /* \"#utility.yul\":417:539   */\n      pop\n      jump\t// out\n        /* \"#utility.yul\":545:684   */\n    tag_53:\n        /* \"#utility.yul\":591:596   */\n      0x00\n        /* \"#utility.yul\":629:635   */\n      dup2\n        /* \"#utility.yul\":616:636   */\n      calldataload\n        /* \"#utility.yul\":607:636   */\n      swap1\n      pop\n        /* \"#utility.yul\":645:678   */\n      tag_94\n        /* \"#utility.yul\":672:677   */\n      dup2\n        /* \"#utility.yul\":645:678   */\n      tag_52\n      jump\t// in\n    tag_94:\n        /* \"#utility.yul\":545:684   */\n      swap3\n      swap2\n      pop\n      pop\n      jump\t// out\n        /* \"#utility.yul\":690:1019   */\n    tag_9:\n        /* \"#utility.yul\":749:755   */\n      0x00\n        /* \"#utility.yul\":798:800   */\n      0x20\n        /* \"#utility.yul\":786:795   */\n      dup3\n        /* \"#utility.yul\":777:784   */\n      dup5\n        /* \"#utility.yul\":773:796   */\n      sub\n        /* \"#utility.yul\":769:801   */\n      slt\n        /* \"#utility.yul\":766:885   */\n      iszero\n      tag_96\n      jumpi\n        /* \"#utility.yul\":804:883   */\n      tag_97\n      tag_49\n      jump\t// in\n    tag_97:\n        /* \"#utility.yul\":766:885   */\n    tag_96:\n        /* \"#utility.yul\":924:925   */\n      0x00\n        /* \"#utility.yul\":949:1002   */\n      tag_98\n        /* \"#utility.yul\":994:1001   */\n      dup5\n        /* \"#utility.yul\":985:991   */\n      dup3\n        /* \"#utility.yul\":974:983   */\n      dup6\n        /* \"#utility.yul\":970:992   */\n      add\n        /* \"#utility.yul\":949:1002   */\n      tag_53\n      jump\t// in\n    tag_98:\n        /* \"#utility.yul\":939:1002   */\n      swap2\n      pop\n        /* \"#utility.yul\":895:1012   */\n      pop\n        /* \"#utility.yul\":690:1019   */\n      swap3\n      swap2\n      pop\n      pop\n      jump\t// out\n        /* \"#utility.yul\":1025:1124   */\n    tag_54:\n        /* \"#utility.yul\":1077:1083   */\n      0x00\n        /* \"#utility.yul\":1111:1116   */\n      dup2\n        /* \"#utility.yul\":1105:1117   */\n      mload\n        /* \"#utility.yul\":1095:1117   */\n      swap1\n      pop\n        /* \"#utility.yul\":1025:1124   */\n      swap2\n      swap1\n      pop\n      jump\t// out\n        /* \"#utility.yul\":1130:1299   */\n    tag_55:\n        /* \"#utility.yul\":1214:1225   */\n      0x00\n        /* \"#utility.yul\":1248:1254   */\n      dup3\n        /* \"#utility.yul\":1243:1246   */\n      dup3\n        /* \"#utility.yul\":1236:1255   */\n      mstore\n        /* \"#utility.yul\":1288:1292   */\n      0x20\n        /* \"#utility.yul\":1283:1286   */\n      dup3\n        /* \"#utility.yul\":1279:1293   */\n      add\n        /* \"#utility.yul\":1264:1293   */\n      swap1\n      pop\n        /* \"#utility.yul\":1130:1299   */\n      swap3\n      swap2\n      pop\n      pop\n      jump\t// out\n        /* \"#utility.yul\":1305:1551   */\n    tag_56:\n        /* \"#utility.yul\":1386:1387   */\n      0x00\n        /* \"#utility.yul\":1396:1509   */\n    tag_102:\n        /* \"#utility.yul\":1410:1416   */\n      dup4\n        /* \"#utility.yul\":1407:1408   */\n      dup2\n        /* \"#utility.yul\":1404:1417   */\n      lt\n        /* \"#utility.yul\":1396:1509   */\n      iszero\n      tag_104\n      jumpi\n        /* \"#utility.yul\":1495:1496   */\n      dup1\n        /* \"#utility.yul\":1490:1493   */\n      dup3\n        /* \"#utility.yul\":1486:1497   */\n      add\n        /* \"#utility.yul\":1480:1498   */\n      mload\n        /* \"#utility.yul\":1476:1477   */\n      dup2\n        /* \"#utility.yul\":1471:1474   */\n      dup5\n        /* \"#utility.yul\":1467:1478   */\n      add\n        /* \"#utility.yul\":1460:1499   */\n      mstore\n        /* \"#utility.yul\":1432:1434   */\n      0x20\n        /* \"#utility.yul\":1429:1430   */\n      dup2\n        /* \"#utility.yul\":1425:1435   */\n      add\n        /* \"#utility.yul\":1420:1435   */\n      swap1\n      pop\n        /* \"#utility.yul\":1396:1509   */\n      jump(tag_102)\n    tag_104:\n        /* \"#utility.yul\":1543:1544   */\n      0x00\n        /* \"#utility.yul\":1534:1540   */\n      dup5\n        /* \"#utility.yul\":1529:1532   */\n      dup5\n        /* \"#utility.yul\":1525:1541   */\n      add\n        /* \"#utility.yul\":1518:1545   */\n      mstore\n        /* \"#utility.yul\":1367:1551   */\n      pop\n        /* \"#utility.yul\":1305:1551   */\n      pop\n      pop\n      pop\n      jump\t// out\n        /* \"#utility.yul\":1557:1659   */\n    tag_57:\n        /* \"#utility.yul\":1598:1604   */\n      0x00\n        /* \"#utility.yul\":1649:1651   */\n      0x1f\n        /* \"#utility.yul\":1645:1652   */\n      not\n        /* \"#utility.yul\":1640:1642   */\n      0x1f\n        /* \"#utility.yul\":1633:1638   */\n      dup4\n        /* \"#utility.yul\":1629:1643   */\n      add\n        /* \"#utility.yul\":1625:1653   */\n      and\n        /* \"#utility.yul\":1615:1653   */\n      swap1\n      pop\n        /* \"#utility.yul\":1557:1659   */\n      swap2\n      swap1\n      pop\n      jump\t// out\n        /* \"#utility.yul\":1665:2042   */\n    tag_58:\n        /* \"#utility.yul\":1753:1756   */\n      0x00\n        /* \"#utility.yul\":1781:1820   */\n      tag_107\n        /* \"#utility.yul\":1814:1819   */\n      dup3\n        /* \"#utility.yul\":1781:1820   */\n      tag_54\n      jump\t// in\n    tag_107:\n        /* \"#utility.yul\":1836:1907   */\n      tag_108\n        /* \"#utility.yul\":1900:1906   */\n      dup2\n        /* \"#utility.yul\":1895:1898   */\n      dup6\n        /* \"#utility.yul\":1836:1907   */\n      tag_55\n      jump\t// in\n    tag_108:\n        /* \"#utility.yul\":1829:1907   */\n      swap4\n      pop\n        /* \"#utility.yul\":1916:1981   */\n      tag_109\n        /* \"#utility.yul\":1974:1980   */\n      dup2\n        /* \"#utility.yul\":1969:1972   */\n      dup6\n        /* \"#utility.yul\":1962:1966   */\n      0x20\n        /* \"#utility.yul\":1955:1960   */\n      dup7\n        /* \"#utility.yul\":1951:1967   */\n      add\n        /* \"#utility.yul\":1916:1981   */\n      tag_56\n      jump\t// in\n    tag_109:\n        /* \"#utility.yul\":2006:2035   */\n      tag_110\n        /* \"#utility.yul\":2028:2034   */\n      dup2\n        /* \"#utility.yul\":2006:2035   */\n      tag_57\n      jump\t// in\n    tag_110:\n        /* \"#utility.yul\":2001:2004   */\n      dup5\n        /* \"#utility.yul\":1997:2036   */\n      add\n        /* \"#utility.yul\":1990:2036   */\n      swap2\n      pop\n        /* \"#utility.yul\":1757:2042   */\n      pop\n        /* \"#utility.yul\":1665:2042   */\n      swap3\n      swap2\n      pop\n      pop\n      jump\t// out\n        /* \"#utility.yul\":2048:2166   */\n    tag_59:\n        /* \"#utility.yul\":2135:2159   */\n      tag_112\n        /* \"#utility.yul\":2153:2158   */\n      dup2\n        /* \"#utility.yul\":2135:2159   */\n      tag_51\n      jump\t// in\n    tag_112:\n        /* \"#utility.yul\":2130:2133   */\n      dup3\n        /* \"#utility.yul\":2123:2160   */\n      mstore\n        /* \"#utility.yul\":2048:2166   */\n      pop\n      pop\n      jump\t// out\n        /* \"#utility.yul\":2172:2595   */\n    tag_12:\n        /* \"#utility.yul\":2313:2317   */\n      0x00\n        /* \"#utility.yul\":2351:2353   */\n      0x40\n        /* \"#utility.yul\":2340:2349   */\n      dup3\n        /* \"#utility.yul\":2336:2354   */\n      add\n        /* \"#utility.yul\":2328:2354   */\n      swap1\n      pop\n        /* \"#utility.yul\":2400:2409   */\n      dup2\n        /* \"#utility.yul\":2394:2398   */\n      dup2\n        /* \"#utility.yul\":2390:2410   */\n      sub\n        /* \"#utility.yul\":2386:2387   */\n      0x00\n        /* \"#utility.yul\":2375:2384   */\n      dup4\n        /* \"#utility.yul\":2371:2388   */\n      add\n        /* \"#utility.yul\":2364:2411   */\n      mstore\n        /* \"#utility.yul\":2428:2506   */\n      tag_114\n        /* \"#utility.yul\":2501:2505   */\n      dup2\n        /* \"#utility.yul\":2492:2498   */\n      dup6\n        /* \"#utility.yul\":2428:2506   */\n      tag_58\n      jump\t// in\n    tag_114:\n        /* \"#utility.yul\":2420:2506   */\n      swap1\n      pop\n        /* \"#utility.yul\":2516:2588   */\n      tag_115\n        /* \"#utility.yul\":2584:2586   */\n      0x20\n        /* \"#utility.yul\":2573:2582   */\n      dup4\n        /* \"#utility.yul\":2569:2587   */\n      add\n        /* \"#utility.yul\":2560:2566   */\n      dup5\n        /* \"#utility.yul\":2516:2588   */\n      tag_59\n      jump\t// in\n    tag_115:\n        /* \"#utility.yul\":2172:2595   */\n      swap4\n      swap3\n      pop\n      pop\n      pop\n      jump\t// out\n        /* \"#utility.yul\":2601:2718   */\n    tag_60:\n        /* \"#utility.yul\":2710:2711   */\n      0x00\n        /* \"#utility.yul\":2707:2708   */\n      dup1\n        /* \"#utility.yul\":2700:2712   */\n      revert\n        /* \"#utility.yul\":2724:2841   */\n    tag_61:\n        /* \"#utility.yul\":2833:2834   */\n      0x00\n        /* \"#utility.yul\":2830:2831   */\n      dup1\n        /* \"#utility.yul\":2823:2835   */\n      revert\n        /* \"#utility.yul\":2847:3027   */\n    tag_62:\n        /* \"#utility.yul\":2895:2972   */\n      0x4e487b7100000000000000000000000000000000000000000000000000000000\n        /* \"#utility.yul\":2892:2893   */\n      0x00\n        /* \"#utility.yul\":2885:2973   */\n      mstore\n        /* \"#utility.yul\":2992:2996   */\n      0x41\n        /* \"#utility.yul\":2989:2990   */\n      0x04\n        /* \"#utility.yul\":2982:2997   */\n      mstore\n        /* \"#utility.yul\":3016:3020   */\n      0x24\n        /* \"#utility.yul\":3013:3014   */\n      0x00\n        /* \"#utility.yul\":3006:3021   */\n      revert\n        /* \"#utility.yul\":3033:3314   */\n    tag_63:\n        /* \"#utility.yul\":3116:3143   */\n      tag_120\n        /* \"#utility.yul\":3138:3142   */\n      dup3\n        /* \"#utility.yul\":3116:3143   */\n      tag_57\n      jump\t// in\n    tag_120:\n        /* \"#utility.yul\":3108:3114   */\n      dup2\n        /* \"#utility.yul\":3104:3144   */\n      add\n        /* \"#utility.yul\":3246:3252   */\n      dup2\n        /* \"#utility.yul\":3234:3244   */\n      dup2\n        /* \"#utility.yul\":3231:3253   */\n      lt\n        /* \"#utility.yul\":3210:3228   */\n      0xffffffffffffffff\n        /* \"#utility.yul\":3198:3208   */\n      dup3\n        /* \"#utility.yul\":3195:3229   */\n      gt\n        /* \"#utility.yul\":3192:3254   */\n      or\n        /* \"#utility.yul\":3189:3277   */\n      iszero\n      tag_121\n      jumpi\n        /* \"#utility.yul\":3257:3275   */\n      tag_122\n      tag_62\n      jump\t// in\n    tag_122:\n        /* \"#utility.yul\":3189:3277   */\n    tag_121:\n        /* \"#utility.yul\":3297:3307   */\n      dup1\n        /* \"#utility.yul\":3293:3295   */\n      0x40\n        /* \"#utility.yul\":3286:3308   */\n      mstore\n        /* \"#utility.yul\":3076:3314   */\n      pop\n        /* \"#utility.yul\":3033:3314   */\n      pop\n      pop\n      jump\t// out\n        /* \"#utility.yul\":3320:3449   */\n    tag_64:\n        /* \"#utility.yul\":3354:3360   */\n      0x00\n        /* \"#utility.yul\":3381:3401   */\n      tag_124\n      tag_48\n      jump\t// in\n    tag_124:\n        /* \"#utility.yul\":3371:3401   */\n      swap1\n      pop\n        /* \"#utility.yul\":3410:3443   */\n      tag_125\n        /* \"#utility.yul\":3438:3442   */\n      dup3\n        /* \"#utility.yul\":3430:3436   */\n      dup3\n        /* \"#utility.yul\":3410:3443   */\n      tag_63\n      jump\t// in\n    tag_125:\n        /* \"#utility.yul\":3320:3449   */\n      swap2\n      swap1\n      pop\n      jump\t// out\n        /* \"#utility.yul\":3455:3763   */\n    tag_65:\n        /* \"#utility.yul\":3517:3521   */\n      0x00\n        /* \"#utility.yul\":3607:3625   */\n      0xffffffffffffffff\n        /* \"#utility.yul\":3599:3605   */\n      dup3\n        /* \"#utility.yul\":3596:3626   */\n      gt\n        /* \"#utility.yul\":3593:3649   */\n      iszero\n      tag_127\n      jumpi\n        /* \"#utility.yul\":3629:3647   */\n      tag_128\n      tag_62\n      jump\t// in\n    tag_128:\n        /* \"#utility.yul\":3593:3649   */\n    tag_127:\n        /* \"#utility.yul\":3667:3696   */\n      tag_129\n        /* \"#utility.yul\":3689:3695   */\n      dup3\n        /* \"#utility.yul\":3667:3696   */\n      tag_57\n      jump\t// in\n    tag_129:\n        /* \"#utility.yul\":3659:3696   */\n      swap1\n      pop\n        /* \"#utility.yul\":3751:3755   */\n      0x20\n        /* \"#utility.yul\":3745:3749   */\n      dup2\n        /* \"#utility.yul\":3741:3756   */\n      add\n        /* \"#utility.yul\":3733:3756   */\n      swap1\n      pop\n        /* \"#utility.yul\":3455:3763   */\n      swap2\n      swap1\n      pop\n      jump\t// out\n        /* \"#utility.yul\":3769:3915   */\n    tag_66:\n        /* \"#utility.yul\":3866:3872   */\n      dup3\n        /* \"#utility.yul\":3861:3864   */\n      dup2\n        /* \"#utility.yul\":3856:3859   */\n      dup4\n        /* \"#utility.yul\":3843:3873   */\n      calldatacopy\n        /* \"#utility.yul\":3907:3908   */\n      0x00\n        /* \"#utility.yul\":3898:3904   */\n      dup4\n        /* \"#utility.yul\":3893:3896   */\n      dup4\n        /* \"#utility.yul\":3889:3905   */\n      add\n        /* \"#utility.yul\":3882:3909   */\n      mstore\n        /* \"#utility.yul\":3769:3915   */\n      pop\n      pop\n      pop\n      jump\t// out\n        /* \"#utility.yul\":3921:4346   */\n    tag_67:\n        /* \"#utility.yul\":3999:4004   */\n      0x00\n        /* \"#utility.yul\":4024:4090   */\n      tag_132\n        /* \"#utility.yul\":4040:4089   */\n      tag_133\n        /* \"#utility.yul\":4082:4088   */\n      dup5\n        /* \"#utility.yul\":4040:4089   */\n      tag_65\n      jump\t// in\n    tag_133:\n        /* \"#utility.yul\":4024:4090   */\n      tag_64\n      jump\t// in\n    tag_132:\n        /* \"#utility.yul\":4015:4090   */\n      swap1\n      pop\n        /* \"#utility.yul\":4113:4119   */\n      dup3\n        /* \"#utility.yul\":4106:4111   */\n      dup2\n        /* \"#utility.yul\":4099:4120   */\n      mstore\n        /* \"#utility.yul\":4151:4155   */\n      0x20\n        /* \"#utility.yul\":4144:4149   */\n      dup2\n        /* \"#utility.yul\":4140:4156   */\n      add\n        /* \"#utility.yul\":4189:4192   */\n      dup5\n        /* \"#utility.yul\":4180:4186   */\n      dup5\n        /* \"#utility.yul\":4175:4178   */\n      dup5\n        /* \"#utility.yul\":4171:4187   */\n      add\n        /* \"#utility.yul\":4168:4193   */\n      gt\n        /* \"#utility.yul\":4165:4277   */\n      iszero\n      tag_134\n      jumpi\n        /* \"#utility.yul\":4196:4275   */\n      tag_135\n      tag_61\n      jump\t// in\n    tag_135:\n        /* \"#utility.yul\":4165:4277   */\n    tag_134:\n        /* \"#utility.yul\":4286:4340   */\n      tag_136\n        /* \"#utility.yul\":4333:4339   */\n      dup5\n        /* \"#utility.yul\":4328:4331   */\n      dup3\n        /* \"#utility.yul\":4323:4326   */\n      dup6\n        /* \"#utility.yul\":4286:4340   */\n      tag_66\n      jump\t// in\n    tag_136:\n        /* \"#utility.yul\":4005:4346   */\n      pop\n        /* \"#utility.yul\":3921:4346   */\n      swap4\n      swap3\n      pop\n      pop\n      pop\n      jump\t// out\n        /* \"#utility.yul\":4366:4706   */\n    tag_68:\n        /* \"#utility.yul\":4422:4427   */\n      0x00\n        /* \"#utility.yul\":4471:4474   */\n      dup3\n        /* \"#utility.yul\":4464:4468   */\n      0x1f\n        /* \"#utility.yul\":4456:4462   */\n      dup4\n        /* \"#utility.yul\":4452:4469   */\n      add\n        /* \"#utility.yul\":4448:4475   */\n      slt\n        /* \"#utility.yul\":4438:4560   */\n      tag_138\n      jumpi\n        /* \"#utility.yul\":4479:4558   */\n      tag_139\n      tag_60\n      jump\t// in\n    tag_139:\n        /* \"#utility.yul\":4438:4560   */\n    tag_138:\n        /* \"#utility.yul\":4596:4602   */\n      dup2\n        /* \"#utility.yul\":4583:4603   */\n      calldataload\n        /* \"#utility.yul\":4621:4700   */\n      tag_140\n        /* \"#utility.yul\":4696:4699   */\n      dup5\n        /* \"#utility.yul\":4688:4694   */\n      dup3\n        /* \"#utility.yul\":4681:4685   */\n      0x20\n        /* \"#utility.yul\":4673:4679   */\n      dup7\n        /* \"#utility.yul\":4669:4686   */\n      add\n        /* \"#utility.yul\":4621:4700   */\n      tag_67\n      jump\t// in\n    tag_140:\n        /* \"#utility.yul\":4612:4700   */\n      swap2\n      pop\n        /* \"#utility.yul\":4428:4706   */\n      pop\n        /* \"#utility.yul\":4366:4706   */\n      swap3\n      swap2\n      pop\n      pop\n      jump\t// out\n        /* \"#utility.yul\":4712:5366   */\n    tag_15:\n        /* \"#utility.yul\":4790:4796   */\n      0x00\n        /* \"#utility.yul\":4798:4804   */\n      dup1\n        /* \"#utility.yul\":4847:4849   */\n      0x40\n        /* \"#utility.yul\":4835:4844   */\n      dup4\n        /* \"#utility.yul\":4826:4833   */\n      dup6\n        /* \"#utility.yul\":4822:4845   */\n      sub\n        /* \"#utility.yul\":4818:4850   */\n      slt\n        /* \"#utility.yul\":4815:4934   */\n      iszero\n      tag_142\n      jumpi\n        /* \"#utility.yul\":4853:4932   */\n      tag_143\n      tag_49\n      jump\t// in\n    tag_143:\n        /* \"#utility.yul\":4815:4934   */\n    tag_142:\n        /* \"#utility.yul\":5001:5002   */\n      0x00\n        /* \"#utility.yul\":4990:4999   */\n      dup4\n        /* \"#utility.yul\":4986:5003   */\n      add\n        /* \"#utility.yul\":4973:5004   */\n      calldataload\n        /* \"#utility.yul\":5031:5049   */\n      0xffffffffffffffff\n        /* \"#utility.yul\":5023:5029   */\n      dup2\n        /* \"#utility.yul\":5020:5050   */\n      gt\n        /* \"#utility.yul\":5017:5134   */\n      iszero\n      tag_144\n      jumpi\n        /* \"#utility.yul\":5053:5132   */\n      tag_145\n      tag_50\n      jump\t// in\n    tag_145:\n        /* \"#utility.yul\":5017:5134   */\n    tag_144:\n        /* \"#utility.yul\":5158:5221   */\n      tag_146\n        /* \"#utility.yul\":5213:5220   */\n      dup6\n        /* \"#utility.yul\":5204:5210   */\n      dup3\n        /* \"#utility.yul\":5193:5202   */\n      dup7\n        /* \"#utility.yul\":5189:5211   */\n      add\n        /* \"#utility.yul\":5158:5221   */\n      tag_68\n      jump\t// in\n    tag_146:\n        /* \"#utility.yul\":5148:5221   */\n      swap3\n      pop\n        /* \"#utility.yul\":4944:5231   */\n      pop\n        /* \"#utility.yul\":5270:5272   */\n      0x20\n        /* \"#utility.yul\":5296:5349   */\n      tag_147\n        /* \"#utility.yul\":5341:5348   */\n      dup6\n        /* \"#utility.yul\":5332:5338   */\n      dup3\n        /* \"#utility.yul\":5321:5330   */\n      dup7\n        /* \"#utility.yul\":5317:5339   */\n      add\n        /* \"#utility.yul\":5296:5349   */\n      tag_53\n      jump\t// in\n    tag_147:\n        /* \"#utility.yul\":5286:5349   */\n      swap2\n      pop\n        /* \"#utility.yul\":5241:5359   */\n      pop\n        /* \"#utility.yul\":4712:5366   */\n      swap3\n      pop\n      swap3\n      swap1\n      pop\n      jump\t// out\n        /* \"#utility.yul\":5372:5594   */\n    tag_20:\n        /* \"#utility.yul\":5465:5469   */\n      0x00\n        /* \"#utility.yul\":5503:5505   */\n      0x20\n        /* \"#utility.yul\":5492:5501   */\n      dup3\n        /* \"#utility.yul\":5488:5506   */\n      add\n        /* \"#utility.yul\":5480:5506   */\n      swap1\n      pop\n        /* \"#utility.yul\":5516:5587   */\n      tag_149\n        /* \"#utility.yul\":5584:5585   */\n      0x00\n        /* \"#utility.yul\":5573:5582   */\n      dup4\n        /* \"#utility.yul\":5569:5586   */\n      add\n        /* \"#utility.yul\":5560:5566   */\n      dup5\n        /* \"#utility.yul\":5516:5587   */\n      tag_59\n      jump\t// in\n    tag_149:\n        /* \"#utility.yul\":5372:5594   */\n      swap3\n      swap2\n      pop\n      pop\n      jump\t// out\n        /* \"#utility.yul\":5600:5780   */\n    tag_28:\n        /* \"#utility.yul\":5648:5725   */\n      0x4e487b7100000000000000000000000000000000000000000000000000000000\n        /* \"#utility.yul\":5645:5646   */\n      0x00\n        /* \"#utility.yul\":5638:5726   */\n      mstore\n        /* \"#utility.yul\":5745:5749   */\n      0x32\n        /* \"#utility.yul\":5742:5743   */\n      0x04\n        /* \"#utility.yul\":5735:5750   */\n      mstore\n        /* \"#utility.yul\":5769:5773   */\n      0x24\n        /* \"#utility.yul\":5766:5767   */\n      0x00\n        /* \"#utility.yul\":5759:5774   */\n      revert\n        /* \"#utility.yul\":5786:5966   */\n    tag_69:\n        /* \"#utility.yul\":5834:5911   */\n      0x4e487b7100000000000000000000000000000000000000000000000000000000\n        /* \"#utility.yul\":5831:5832   */\n      0x00\n        /* \"#utility.yul\":5824:5912   */\n      mstore\n        /* \"#utility.yul\":5931:5935   */\n      0x22\n        /* \"#utility.yul\":5928:5929   */\n      0x04\n        /* \"#utility.yul\":5921:5936   */\n      mstore\n        /* \"#utility.yul\":5955:5959   */\n      0x24\n        /* \"#utility.yul\":5952:5953   */\n      0x00\n        /* \"#utility.yul\":5945:5960   */\n      revert\n        /* \"#utility.yul\":5972:6292   */\n    tag_31:\n        /* \"#utility.yul\":6016:6022   */\n      0x00\n        /* \"#utility.yul\":6053:6054   */\n      0x02\n        /* \"#utility.yul\":6047:6051   */\n      dup3\n        /* \"#utility.yul\":6043:6055   */\n      div\n        /* \"#utility.yul\":6033:6055   */\n      swap1\n      pop\n        /* \"#utility.yul\":6100:6101   */\n      0x01\n        /* \"#utility.yul\":6094:6098   */\n      dup3\n        /* \"#utility.yul\":6090:6102   */\n      and\n        /* \"#utility.yul\":6121:6139   */\n      dup1\n        /* \"#utility.yul\":6111:6192   */\n      tag_153\n      jumpi\n        /* \"#utility.yul\":6177:6181   */\n      0x7f\n        /* \"#utility.yul\":6169:6175   */\n      dup3\n        /* \"#utility.yul\":6165:6182   */\n      and\n        /* \"#utility.yul\":6155:6182   */\n      swap2\n      pop\n        /* \"#utility.yul\":6111:6192   */\n    tag_153:\n        /* \"#utility.yul\":6239:6241   */\n      0x20\n        /* \"#utility.yul\":6231:6237   */\n      dup3\n        /* \"#utility.yul\":6228:6242   */\n      lt\n        /* \"#utility.yul\":6208:6226   */\n      dup2\n        /* \"#utility.yul\":6205:6243   */\n      sub\n        /* \"#utility.yul\":6202:6286   */\n      tag_154\n      jumpi\n        /* \"#utility.yul\":6258:6276   */\n      tag_155\n      tag_69\n      jump\t// in\n    tag_155:\n        /* \"#utility.yul\":6202:6286   */\n    tag_154:\n        /* \"#utility.yul\":6023:6292   */\n      pop\n        /* \"#utility.yul\":5972:6292   */\n      swap2\n      swap1\n      pop\n      jump\t// out\n        /* \"#utility.yul\":6298:6439   */\n    tag_70:\n        /* \"#utility.yul\":6347:6351   */\n      0x00\n        /* \"#utility.yul\":6370:6373   */\n      dup2\n        /* \"#utility.yul\":6362:6373   */\n      swap1\n      pop\n        /* \"#utility.yul\":6393:6396   */\n      dup2\n        /* \"#utility.yul\":6390:6391   */\n      0x00\n        /* \"#utility.yul\":6383:6397   */\n      mstore\n        /* \"#utility.yul\":6427:6431   */\n      0x20\n        /* \"#utility.yul\":6424:6425   */\n      0x00\n        /* \"#utility.yul\":6414:6432   */\n      keccak256\n        /* \"#utility.yul\":6406:6432   */\n      swap1\n      pop\n        /* \"#utility.yul\":6298:6439   */\n      swap2\n      swap1\n      pop\n      jump\t// out\n        /* \"#utility.yul\":6445:6538   */\n    tag_71:\n        /* \"#utility.yul\":6482:6488   */\n      0x00\n        /* \"#utility.yul\":6529:6531   */\n      0x20\n        /* \"#utility.yul\":6524:6526   */\n      0x1f\n        /* \"#utility.yul\":6517:6522   */\n      dup4\n        /* \"#utility.yul\":6513:6527   */\n      add\n        /* \"#utility.yul\":6509:6532   */\n      div\n        /* \"#utility.yul\":6499:6532   */\n      swap1\n      pop\n        /* \"#utility.yul\":6445:6538   */\n      swap2\n      swap1\n      pop\n      jump\t// out\n        /* \"#utility.yul\":6544:6651   */\n    tag_72:\n        /* \"#utility.yul\":6588:6596   */\n      0x00\n        /* \"#utility.yul\":6638:6643   */\n      dup3\n        /* \"#utility.yul\":6632:6636   */\n      dup3\n        /* \"#utility.yul\":6628:6644   */\n      shl\n        /* \"#utility.yul\":6607:6644   */\n      swap1\n      pop\n        /* \"#utility.yul\":6544:6651   */\n      swap3\n      swap2\n      pop\n      pop\n      jump\t// out\n        /* \"#utility.yul\":6657:7050   */\n    tag_73:\n        /* \"#utility.yul\":6726:6732   */\n      0x00\n        /* \"#utility.yul\":6776:6777   */\n      0x08\n        /* \"#utility.yul\":6764:6774   */\n      dup4\n        /* \"#utility.yul\":6760:6778   */\n      mul\n        /* \"#utility.yul\":6799:6896   */\n      tag_160\n        /* \"#utility.yul\":6829:6895   */\n      0xffffffffffffffffffffffffffffffffffffffffffffffffffffffffffffffff\n        /* \"#utility.yul\":6818:6827   */\n      dup3\n        /* \"#utility.yul\":6799:6896   */\n      tag_72\n      jump\t// in\n    tag_160:\n        /* \"#utility.yul\":6917:6956   */\n      tag_161\n        /* \"#utility.yul\":6947:6955   */\n      dup7\n        /* \"#utility.yul\":6936:6945   */\n      dup4\n        /* \"#utility.yul\":6917:6956   */\n      tag_72\n      jump\t// in\n    tag_161:\n        /* \"#utility.yul\":6905:6956   */\n      swap6\n      pop\n        /* \"#utility.yul\":6989:6993   */\n      dup1\n        /* \"#utility.yul\":6985:6994   */\n      not\n        /* \"#utility.yul\":6978:6983   */\n      dup5\n        /* \"#utility.yul\":6974:6995   */\n      and\n        /* \"#utility.yul\":6965:6995   */\n      swap4\n      pop\n        /* \"#utility.yul\":7038:7042   */\n      dup1\n        /* \"#utility.yul\":7028:7036   */\n      dup7\n        /* \"#utility.yul\":7024:7043   */\n      and\n        /* \"#utility.yul\":7017:7022   */\n      dup5\n        /* \"#utility.yul\":7014:7044   */\n      or\n        /* \"#utility.yul\":7004:7044   */\n      swap3\n      pop\n        /* \"#utility.yul\":6733:7050   */\n      pop\n      pop\n        /* \"#utility.yul\":6657:7050   */\n      swap4\n      swap3\n      pop\n      pop\n      pop\n      jump\t// out\n        /* \"#utility.yul\":7056:7116   */\n    tag_74:\n        /* \"#utility.yul\":7084:7087   */\n      0x00\n        /* \"#utility.yul\":7105:7110   */\n      dup2\n        /* \"#utility.yul\":7098:7110   */\n      swap1\n      pop\n        /* \"#utility.yul\":7056:7116   */\n      swap2\n      swap1\n      pop\n      jump\t// out\n        /* \"#utility.yul\":7122:7264   */\n    tag_75:\n        /* \"#utility.yul\":7172:7181   */\n      0x00\n        /* \"#utility.yul\":7205:7258   */\n      tag_164\n        /* \"#utility.yul\":7223:7257   */\n      tag_165\n        /* \"#utility.yul\":7232:7256   */\n      tag_166\n        /* \"#utility.yul\":7250:7255   */\n      dup5\n        /* \"#utility.yul\":7232:7256   */\n      tag_51\n      jump\t// in\n    tag_166:\n        /* \"#utility.yul\":7223:7257   */\n      tag_74\n      jump\t// in\n    tag_165:\n        /* \"#utility.yul\":7205:7258   */\n      tag_51\n      jump\t// in\n    tag_164:\n        /* \"#utility.yul\":7192:7258   */\n      swap1\n      pop\n        /* \"#utility.yul\":7122:7264   */\n      swap2\n      swap1\n      pop\n      jump\t// out\n        /* \"#utility.yul\":7270:7345   */\n    tag_76:\n        /* \"#utility.yul\":7313:7316   */\n      0x00\n        /* \"#utility.yul\":7334:7339   */\n      dup2\n        /* \"#utility.yul\":7327:7339   */\n      swap1\n      pop\n        /* \"#utility.yul\":7270:7345   */\n      swap2\n      swap1\n      pop\n      jump\t// out\n        /* \"#utility.yul\":7351:7620   */\n    tag_77:\n        /* \"#utility.yul\":7461:7500   */\n      tag_169\n        /* \"#utility.yul\":7492:7499   */\n      dup4\n        /* \"#utility.yul\":7461:7500   */\n      tag_75\n      jump\t// in\n    tag_169:\n        /* \"#utility.yul\":7522:7613   */\n      tag_170\n        /* \"#utility.yul\":7571:7612   */\n      tag_171\n        /* \"#utility.yul\":7595:7611   */\n      dup3\n        /* \"#utility.yul\":7571:7612   */\n      tag_76\n      jump\t// in\n    tag_171:\n        /* \"#utility.yul\":7563:7569   */\n      dup5\n        /* \"#utility.yul\":7556:7560   */\n      dup5\n        /* \"#utility.yul\":7550:7561   */\n      sload\n        /* \"#utility.yul\":7522:7613   */\n      tag_73\n      jump\t// in\n    tag_170:\n        /* \"#utility.yul\":7516:7520   */\n      dup3\n        /* \"#utility.yul\":7509:7614   */\n      sstore\n        /* \"#utility.yul\":7427:7620   */\n      pop\n        /* \"#utility.yul\":7351:7620   */\n      pop\n      pop\n      pop\n      jump\t// out\n        /* \"#utility.yul\":7626:7699   */\n    tag_78:\n        /* \"#utility.yul\":7671:7674   */\n      0x00\n        /* \"#utility.yul\":7626:7699   */\n      swap1\n      jump\t// out\n        /* \"#utility.yul\":7705:7894   */\n    tag_79:\n        /* \"#utility.yul\":7782:7814   */\n      tag_174\n      tag_78\n      jump\t// in\n    tag_174:\n        /* \"#utility.yul\":7823:7888   */\n      tag_175\n        /* \"#utility.yul\":7881:7887   */\n      dup2\n        /* \"#utility.yul\":7873:7879   */\n      dup5\n        /* \"#utility.yul\":7867:7871   */\n      dup5\n        /* \"#utility.yul\":7823:7888   */\n      tag_77\n      jump\t// in\n    tag_175:\n        /* \"#utility.yul\":7758:7894   */\n      pop\n        /* \"#utility.yul\":7705:7894   */\n      pop\n      pop\n      jump\t// out\n        /* \"#utility.yul\":7900:8086   */\n    tag_80:\n        /* \"#utility.yul\":7960:8080   */\n    tag_177:\n        /* \"#utility.yul\":7977:7980   */\n      dup2\n        /* \"#utility.yul\":7970:7975   */\n      dup2\n        /* \"#utility.yul\":7967:7981   */\n      lt\n        /* \"#utility.yul\":7960:8080   */\n      iszero\n      tag_179\n      jumpi\n        /* \"#utility.yul\":8031:8070   */\n      tag_180\n        /* \"#utility.yul\":8068:8069   */\n      0x00\n        /* \"#utility.yul\":8061:8066   */\n      dup3\n        /* \"#utility.yul\":8031:8070   */\n      tag_79\n      jump\t// in\n    tag_180:\n        /* \"#utility.yul\":8004:8005   */\n      0x01\n        /* \"#utility.yul\":7997:8002   */\n      dup2\n        /* \"#utility.yul\":7993:8006   */\n      add\n        /* \"#utility.yul\":7984:8006   */\n      swap1\n      pop\n        /* \"#utility.yul\":7960:8080   */\n      jump(tag_177)\n    tag_179:\n        /* \"#utility.yul\":7900:8086   */\n      pop\n      pop\n      jump\t// out\n        /* \"#utility.yul\":8092:8635   */\n    tag_81:\n        /* \"#utility.yul\":8193:8195   */\n      0x1f\n        /* \"#utility.yul\":8188:8191   */\n      dup3\n        /* \"#utility.yul\":8185:8196   */\n      gt\n        /* \"#utility.yul\":8182:8628   */\n      iszero\n      tag_182\n      jumpi\n        /* \"#utility.yul\":8227:8265   */\n      tag_183\n        /* \"#utility.yul\":8259:8264   */\n      dup2\n        /* \"#utility.yul\":8227:8265   */\n      tag_70\n      jump\t// in\n    tag_183:\n        /* \"#utility.yul\":8311:8340   */\n      tag_184\n        /* \"#utility.yul\":8329:8339   */\n      dup5\n        /* \"#utility.yul\":8311:8340   */\n      tag_71\n      jump\t// in\n    tag_184:\n        /* \"#utility.yul\":8301:8309   */\n      dup2\n        /* \"#utility.yul\":8297:8341   */\n      add\n        /* \"#utility.yul\":8494:8496   */\n      0x20\n        /* \"#utility.yul\":8482:8492   */\n      dup6\n        /* \"#utility.yul\":8479:8497   */\n      lt\n        /* \"#utility.yul\":8476:8525   */\n      iszero\n      tag_185\n      jumpi\n        /* \"#utility.yul\":8515:8523   */\n      dup2\n        /* \"#utility.yul\":8500:8523   */\n      swap1\n      pop\n        /* \"#utility.yul\":8476:8525   */\n    tag_185:\n        /* \"#utility.yul\":8538:8618   */\n      tag_186\n        /* \"#utility.yul\":8594:8616   */\n      tag_187\n        /* \"#utility.yul\":8612:8615   */\n      dup6\n        /* \"#utility.yul\":8594:8616   */\n      tag_71\n      jump\t// in\n    tag_187:\n        /* \"#utility.yul\":8584:8592   */\n      dup4\n        /* \"#utility.yul\":8580:8617   */\n      add\n        /* \"#utility.yul\":8567:8578   */\n      dup3\n        /* \"#utility.yul\":8538:8618   */\n      tag_80\n      jump\t// in\n    tag_186:\n        /* \"#utility.yul\":8197:8628   */\n      pop\n      pop\n        /* \"#utility.yul\":8182:8628   */\n    tag_182:\n        /* \"#utility.yul\":8092:8635   */\n      pop\n      pop\n      pop\n      jump\t// out\n        /* \"#utility.yul\":8641:8758   */\n    tag_82:\n        /* \"#utility.yul\":8695:8703   */\n      0x00\n        /* \"#utility.yul\":8745:8750   */\n      dup3\n        /* \"#utility.yul\":8739:8743   */\n      dup3\n        /* \"#utility.yul\":8735:8751   */\n      shr\n        /* \"#utility.yul\":8714:8751   */\n      swap1\n      pop\n        /* \"#utility.yul\":8641:8758   */\n      swap3\n      swap2\n      pop\n      pop\n      jump\t// out\n        /* \"#utility.yul\":8764:8933   */\n    tag_83:\n        /* \"#utility.yul\":8808:8814   */\n      0x00\n        /* \"#utility.yul\":8841:8892   */\n      tag_190\n        /* \"#utility.yul\":8889:8890   */\n      0x00\n        /* \"#utility.yul\":8885:8891   */\n      not\n        /* \"#utility.yul\":8877:8882   */\n      dup5\n        /* \"#utility.yul\":8874:8875   */\n      0x08\n        /* \"#utility.yul\":8870:8883   */\n      mul\n        /* \"#utility.yul\":8841:8892   */\n      tag_82\n      jump\t// in\n    tag_190:\n        /* \"#utility.yul\":8837:8893   */\n      not\n        /* \"#utility.yul\":8922:8926   */\n      dup1\n        /* \"#utility.yul\":8916:8920   */\n      dup4\n        /* \"#utility.yul\":8912:8927   */\n      and\n        /* \"#utility.yul\":8902:8927   */\n      swap2\n      pop\n        /* \"#utility.yul\":8815:8933   */\n      pop\n        /* \"#utility.yul\":8764:8933   */\n      swap3\n      swap2\n      pop\n      pop\n      jump\t// out\n        /* \"#utility.yul\":8938:9233   */\n    tag_84:\n        /* \"#utility.yul\":9014:9018   */\n      0x00\n        /* \"#utility.yul\":9160:9189   */\n      tag_192\n        /* \"#utility.yul\":9185:9188   */\n      dup4\n        /* \"#utility.yul\":9179:9183   */\n      dup4\n        /* \"#utility.yul\":9160:9189   */\n      tag_83\n      jump\t// in\n    tag_192:\n        /* \"#utility.yul\":9152:9189   */\n      swap2\n      pop\n        /* \"#utility.yul\":9222:9225   */\n      dup3\n        /* \"#utility.yul\":9219:9220   */\n      0x02\n        /* \"#utility.yul\":9215:9226   */\n      mul\n        /* \"#utility.yul\":9209:9213   */\n      dup3\n        /* \"#utility.yul\":9206:9227   */\n      or\n        /* \"#utility.yul\":9198:9227   */\n      swap1\n      pop\n        /* \"#utility.yul\":8938:9233   */\n      swap3\n      swap2\n      pop\n      pop\n      jump\t// out\n        /* \"#utility.yul\":9238:10633   */\n    tag_39:\n        /* \"#utility.yul\":9355:9392   */\n      tag_194\n        /* \"#utility.yul\":9388:9391   */\n      dup3\n        /* \"#utility.yul\":9355:9392   */\n      tag_54\n      jump\t// in\n    tag_194:\n        /* \"#utility.yul\":9457:9475   */\n      0xffffffffffffffff\n        /* \"#utility.yul\":9449:9455   */\n      dup2\n        /* \"#utility.yul\":9446:9476   */\n      gt\n        /* \"#utility.yul\":9443:9499   */\n      iszero\n      tag_195\n      jumpi\n        /* \"#utility.yul\":9479:9497   */\n      tag_196\n      tag_62\n      jump\t// in\n    tag_196:\n        /* \"#utility.yul\":9443:9499   */\n    tag_195:\n        /* \"#utility.yul\":9523:9561   */\n      tag_197\n        /* \"#utility.yul\":9555:9559   */\n      dup3\n        /* \"#utility.yul\":9549:9560   */\n      sload\n        /* \"#utility.yul\":9523:9561   */\n      tag_31\n      jump\t// in\n    tag_197:\n        /* \"#utility.yul\":9608:9675   */\n      tag_198\n        /* \"#utility.yul\":9668:9674   */\n      dup3\n        /* \"#utility.yul\":9660:9666   */\n      dup3\n        /* \"#utility.yul\":9654:9658   */\n      dup6\n        /* \"#utility.yul\":9608:9675   */\n      tag_81\n      jump\t// in\n    tag_198:\n        /* \"#utility.yul\":9702:9703   */\n      0x00\n        /* \"#utility.yul\":9726:9730   */\n      0x20\n        /* \"#utility.yul\":9713:9730   */\n      swap1\n      pop\n        /* \"#utility.yul\":9758:9760   */\n      0x1f\n        /* \"#utility.yul\":9750:9756   */\n      dup4\n        /* \"#utility.yul\":9747:9761   */\n      gt\n        /* \"#utility.yul\":9775:9776   */\n      0x01\n        /* \"#utility.yul\":9770:10388   */\n      dup2\n      eq\n      tag_200\n      jumpi\n        /* \"#utility.yul\":10432:10433   */\n      0x00\n        /* \"#utility.yul\":10449:10455   */\n      dup5\n        /* \"#utility.yul\":10446:10523   */\n      iszero\n      tag_201\n      jumpi\n        /* \"#utility.yul\":10498:10507   */\n      dup3\n        /* \"#utility.yul\":10493:10496   */\n      dup8\n        /* \"#utility.yul\":10489:10508   */\n      add\n        /* \"#utility.yul\":10483:10509   */\n      mload\n        /* \"#utility.yul\":10474:10509   */\n      swap1\n      pop\n        /* \"#utility.yul\":10446:10523   */\n    tag_201:\n        /* \"#utility.yul\":10549:10616   */\n      tag_202\n        /* \"#utility.yul\":10609:10615   */\n      dup6\n        /* \"#utility.yul\":10602:10607   */\n      dup3\n        /* \"#utility.yul\":10549:10616   */\n      tag_84\n      jump\t// in\n    tag_202:\n        /* \"#utility.yul\":10543:10547   */\n      dup7\n        /* \"#utility.yul\":10536:10617   */\n      sstore\n        /* \"#utility.yul\":10405:10627   */\n      pop\n        /* \"#utility.yul\":9740:10627   */\n      jump(tag_199)\n        /* \"#utility.yul\":9770:10388   */\n    tag_200:\n        /* \"#utility.yul\":9822:9826   */\n      0x1f\n        /* \"#utility.yul\":9818:9827   */\n      not\n        /* \"#utility.yul\":9810:9816   */\n      dup5\n        /* \"#utility.yul\":9806:9828   */\n      and\n        /* \"#utility.yul\":9856:9893   */\n      tag_203\n        /* \"#utility.yul\":9888:9892   */\n      dup7\n        /* \"#utility.yul\":9856:9893   */\n      tag_70\n      jump\t// in\n    tag_203:\n        /* \"#utility.yul\":9915:9916   */\n      0x00\n        /* \"#utility.yul\":9929:10137   */\n    tag_204:\n        /* \"#utility.yul\":9943:9950   */\n      dup3\n        /* \"#utility.yul\":9940:9941   */\n      dup2\n        /* \"#utility.yul\":9937:9951   */\n      lt\n        /* \"#utility.yul\":9929:10137   */\n      iszero\n      tag_206\n      jumpi\n        /* \"#utility.yul\":10022:10031   */\n      dup5\n        /* \"#utility.yul\":10017:10020   */\n      dup10\n        /* \"#utility.yul\":10013:10032   */\n      add\n        /* \"#utility.yul\":10007:10033   */\n      mload\n        /* \"#utility.yul\":9999:10005   */\n      dup3\n        /* \"#utility.yul\":9992:10034   */\n      sstore\n        /* \"#utility.yul\":10073:10074   */\n      0x01\n        /* \"#utility.yul\":10065:10071   */\n      dup3\n        /* \"#utility.yul\":10061:10075   */\n      add\n        /* \"#utility.yul\":10051:10075   */\n      swap2\n      pop\n        /* \"#utility.yul\":10120:10122   */\n      0x20\n        /* \"#utility.yul\":10109:10118   */\n      dup6\n        /* \"#utility.yul\":10105:10123   */\n      add\n        /* \"#utility.yul\":10092:10123   */\n      swap5\n      pop\n        /* \"#utility.yul\":9966:9970   */\n      0x20\n        /* \"#utility.yul\":9963:9964   */\n      dup2\n        /* \"#utility.yul\":9959:9971   */\n      add\n        /* \"#utility.yul\":9954:9971   */\n      swap1\n      pop\n        /* \"#utility.yul\":9929:10137   */\n      jump(tag_204)\n    tag_206:\n        /* \"#utility.yul\":10165:10171   */\n      dup7\n        /* \"#utility.yul\":10156:10163   */\n      dup4\n        /* \"#utility.yul\":10153:10172   */\n      lt\n        /* \"#utility.yul\":10150:10329   */\n      iszero\n      tag_207\n      jumpi\n        /* \"#utility.yul\":10223:10232   */\n      dup5\n        /* \"#utility.yul\":10218:10221   */\n      dup10\n        /* \"#utility.yul\":10214:10233   */\n      add\n        /* \"#utility.yul\":10208:10234   */\n      mload\n        /* \"#utility.yul\":10266:10314   */\n      tag_208\n        /* \"#utility.yul\":10308:10312   */\n      0x1f\n        /* \"#utility.yul\":10300:10306   */\n      dup10\n        /* \"#utility.yul\":10296:10313   */\n      and\n        /* \"#utility.yul\":10285:10294   */\n      dup3\n        /* \"#utility.yul\":10266:10314   */\n      tag_83\n      jump\t// in\n    tag_208:\n        /* \"#utility.yul\":10258:10264   */\n      dup4\n        /* \"#utility.yul\":10251:10315   */\n      sstore\n        /* \"#utility.yul\":10173:10329   */\n      pop\n        /* \"#utility.yul\":10150:10329   */\n    tag_207:\n        /* \"#utility.yul\":10375:10376   */\n      0x01\n        /* \"#utility.yul\":10371:10372   */\n      0x02\n        /* \"#utility.yul\":10363:10369   */\n      dup9\n        /* \"#utility.yul\":10359:10373   */\n      mul\n        /* \"#utility.yul\":10355:10377   */\n      add\n        /* \"#utility.yul\":10349:10353   */\n      dup9\n        /* \"#utility.yul\":10342:10378   */\n      sstore\n        /* \"#utility.yul\":9777:10388   */\n      pop\n      pop\n      pop\n        /* \"#utility.yul\":9740:10627   */\n    tag_199:\n      pop\n        /* \"#utility.yul\":9330:10633   */\n      pop\n      pop\n      pop\n        /* \"#utility.yul\":9238:10633   */\n      pop\n      pop\n      jump\t// out\n\n    auxdata: 0xa2646970667358221220ece5ed27493d9f2b452eb92213abac8ffa9fefbea9e0fc860da0de5227e79afc64736f6c63430008180033\n}\n",
				"bytecode": {
					"linkReferences": {},
					"object": "608060405234801561000f575f80fd5b506108e68061001d5f395ff3fe608060405234801561000f575f80fd5b506004361061004a575f3560e01c80633129e7731461004e57806362d6bbdf1461007f5780637749cf231461009b578063bfb231d2146100b9575b5f80fd5b61006860048036038101906100639190610329565b6100ea565b6040516100769291906103ed565b60405180910390f35b61009960048036038101906100949190610547565b6101c6565b005b6100a3610226565b6040516100b091906105a1565b60405180910390f35b6100d360048036038101906100ce9190610329565b610231565b6040516100e19291906103ed565b60405180910390f35b60605f805f8481548110610101576101006105ba565b5b905f5260205f2090600202016040518060400160405290815f8201805461012790610614565b80601f016020809104026020016040519081016040528092919081815260200182805461015390610614565b801561019e5780601f106101755761010080835404028352916020019161019e565b820191905f5260205f20905b81548152906001019060200180831161018157829003601f168201915b505050505081526020016001820154815250509050805f015181602001519250925050915091565b5f604051806040016040528084815260200183815250908060018154018082558091505060019003905f5260205f2090600202015f909190919091505f820151815f01908161021591906107e1565b506020820151816001015550505050565b5f8080549050905090565b5f818154811061023f575f80fd5b905f5260205f2090600202015f91509050805f01805461025e90610614565b80601f016020809104026020016040519081016040528092919081815260200182805461028a90610614565b80156102d55780601f106102ac576101008083540402835291602001916102d5565b820191905f5260205f20905b8154815290600101906020018083116102b857829003601f168201915b5050505050908060010154905082565b5f604051905090565b5f80fd5b5f80fd5b5f819050919050565b610308816102f6565b8114610312575f80fd5b50565b5f81359050610323816102ff565b92915050565b5f6020828403121561033e5761033d6102ee565b5b5f61034b84828501610315565b91505092915050565b5f81519050919050565b5f82825260208201905092915050565b5f5b8381101561038b578082015181840152602081019050610370565b5f8484015250505050565b5f601f19601f8301169050919050565b5f6103b082610354565b6103ba818561035e565b93506103ca81856020860161036e565b6103d381610396565b840191505092915050565b6103e7816102f6565b82525050565b5f6040820190508181035f83015261040581856103a6565b905061041460208301846103de565b9392505050565b5f80fd5b5f80fd5b7f4e487b71000000000000000000000000000000000000000000000000000000005f52604160045260245ffd5b61045982610396565b810181811067ffffffffffffffff8211171561047857610477610423565b5b80604052505050565b5f61048a6102e5565b90506104968282610450565b919050565b5f67ffffffffffffffff8211156104b5576104b4610423565b5b6104be82610396565b9050602081019050919050565b828183375f83830152505050565b5f6104eb6104e68461049b565b610481565b9050828152602081018484840111156105075761050661041f565b5b6105128482856104cb565b509392505050565b5f82601f83011261052e5761052d61041b565b5b813561053e8482602086016104d9565b91505092915050565b5f806040838503121561055d5761055c6102ee565b5b5f83013567ffffffffffffffff81111561057a576105796102f2565b5b6105868582860161051a565b925050602061059785828601610315565b9150509250929050565b5f6020820190506105b45f8301846103de565b92915050565b7f4e487b71000000000000000000000000000000000000000000000000000000005f52603260045260245ffd5b7f4e487b71000000000000000000000000000000000000000000000000000000005f52602260045260245ffd5b5f600282049050600182168061062b57607f821691505b60208210810361063e5761063d6105e7565b5b50919050565b5f819050815f5260205f209050919050565b5f6020601f8301049050919050565b5f82821b905092915050565b5f600883026106a07fffffffffffffffffffffffffffffffffffffffffffffffffffffffffffffffff82610665565b6106aa8683610665565b95508019841693508086168417925050509392505050565b5f819050919050565b5f6106e56106e06106db846102f6565b6106c2565b6102f6565b9050919050565b5f819050919050565b6106fe836106cb565b61071261070a826106ec565b848454610671565b825550505050565b5f90565b61072661071a565b6107318184846106f5565b505050565b5b81811015610754576107495f8261071e565b600181019050610737565b5050565b601f8211156107995761076a81610644565b61077384610656565b81016020851015610782578190505b61079661078e85610656565b830182610736565b50505b505050565b5f82821c905092915050565b5f6107b95f198460080261079e565b1980831691505092915050565b5f6107d183836107aa565b9150826002028217905092915050565b6107ea82610354565b67ffffffffffffffff81111561080357610802610423565b5b61080d8254610614565b610818828285610758565b5f60209050601f831160018114610849575f8415610837578287015190505b61084185826107c6565b8655506108a8565b601f19841661085786610644565b5f5b8281101561087e57848901518255600182019150602085019450602081019050610859565b8683101561089b5784890151610897601f8916826107aa565b8355505b6001600288020188555050505b50505050505056fea2646970667358221220ece5ed27493d9f2b452eb92213abac8ffa9fefbea9e0fc860da0de5227e79afc64736f6c63430008180033",
					"opcodes": "PUSH1 0x80 PUSH1 0x40 MSTORE CALLVALUE DUP1 ISZERO PUSH2 0xF JUMPI PUSH0 DUP1 REVERT JUMPDEST POP PUSH2 0x8E6 DUP1 PUSH2 0x1D PUSH0 CODECOPY PUSH0 RETURN INVALID PUSH1 0x80 PUSH1 0x40 MSTORE CALLVALUE DUP1 ISZERO PUSH2 0xF JUMPI PUSH0 DUP1 REVERT JUMPDEST POP PUSH1 0x4 CALLDATASIZE LT PUSH2 0x4A JUMPI PUSH0 CALLDATALOAD PUSH1 0xE0 SHR DUP1 PUSH4 0x3129E773 EQ PUSH2 0x4E JUMPI DUP1 PUSH4 0x62D6BBDF EQ PUSH2 0x7F JUMPI DUP1 PUSH4 0x7749CF23 EQ PUSH2 0x9B JUMPI DUP1 PUSH4 0xBFB231D2 EQ PUSH2 0xB9 JUMPI JUMPDEST PUSH0 DUP1 REVERT JUMPDEST PUSH2 0x68 PUSH1 0x4 DUP1 CALLDATASIZE SUB DUP2 ADD SWAP1 PUSH2 0x63 SWAP2 SWAP1 PUSH2 0x329 JUMP JUMPDEST PUSH2 0xEA JUMP JUMPDEST PUSH1 0x40 MLOAD PUSH2 0x76 SWAP3 SWAP2 SWAP1 PUSH2 0x3ED JUMP JUMPDEST PUSH1 0x40 MLOAD DUP1 SWAP2 SUB SWAP1 RETURN JUMPDEST PUSH2 0x99 PUSH1 0x4 DUP1 CALLDATASIZE SUB DUP2 ADD SWAP1 PUSH2 0x94 SWAP2 SWAP1 PUSH2 0x547 JUMP JUMPDEST PUSH2 0x1C6 JUMP JUMPDEST STOP JUMPDEST PUSH2 0xA3 PUSH2 0x226 JUMP JUMPDEST PUSH1 0x40 MLOAD PUSH2 0xB0 SWAP2 SWAP1 PUSH2 0x5A1 JUMP JUMPDEST PUSH1 0x40 MLOAD DUP1 SWAP2 SUB SWAP1 RETURN JUMPDEST PUSH2 0xD3 PUSH1 0x4 DUP1 CALLDATASIZE SUB DUP2 ADD SWAP1 PUSH2 0xCE SWAP2 SWAP1 PUSH2 0x329 JUMP JUMPDEST PUSH2 0x231 JUMP JUMPDEST PUSH1 0x40 MLOAD PUSH2 0xE1 SWAP3 SWAP2 SWAP1 PUSH2 0x3ED JUMP JUMPDEST PUSH1 0x40 MLOAD DUP1 SWAP2 SUB SWAP1 RETURN JUMPDEST PUSH1 0x60 PUSH0 DUP1 PUSH0 DUP5 DUP2 SLOAD DUP2 LT PUSH2 0x101 JUMPI PUSH2 0x100 PUSH2 0x5BA JUMP JUMPDEST JUMPDEST SWAP1 PUSH0 MSTORE PUSH1 0x20 PUSH0 KECCAK256 SWAP1 PUSH1 0x2 MUL ADD PUSH1 0x40 MLOAD DUP1 PUSH1 0x40 ADD PUSH1 0x40 MSTORE SWAP1 DUP2 PUSH0 DUP3 ADD DUP1 SLOAD PUSH2 0x127 SWAP1 PUSH2 0x614 JUMP JUMPDEST DUP1 PUSH1 0x1F ADD PUSH1 0x20 DUP1 SWAP2 DIV MUL PUSH1 0x20 ADD PUSH1 0x40 MLOAD SWAP1 DUP2 ADD PUSH1 0x40 MSTORE DUP1 SWAP3 SWAP2 SWAP1 DUP2 DUP2 MSTORE PUSH1 0x20 ADD DUP3 DUP1 SLOAD PUSH2 0x153 SWAP1 PUSH2 0x614 JUMP JUMPDEST DUP1 ISZERO PUSH2 0x19E JUMPI DUP1 PUSH1 0x1F LT PUSH2 0x175 JUMPI PUSH2 0x100 DUP1 DUP4 SLOAD DIV MUL DUP4 MSTORE SWAP2 PUSH1 0x20 ADD SWAP2 PUSH2 0x19E JUMP JUMPDEST DUP3 ADD SWAP2 SWAP1 PUSH0 MSTORE PUSH1 0x20 PUSH0 KECCAK256 SWAP1 JUMPDEST DUP2 SLOAD DUP2 MSTORE SWAP1 PUSH1 0x1 ADD SWAP1 PUSH1 0x20 ADD DUP1 DUP4 GT PUSH2 0x181 JUMPI DUP3 SWAP1 SUB PUSH1 0x1F AND DUP3 ADD SWAP2 JUMPDEST POP POP POP POP POP DUP2 MSTORE PUSH1 0x20 ADD PUSH1 0x1 DUP3 ADD SLOAD DUP2 MSTORE POP POP SWAP1 POP DUP1 PUSH0 ADD MLOAD DUP2 PUSH1 0x20 ADD MLOAD SWAP3 POP SWAP3 POP POP SWAP2 POP SWAP2 JUMP JUMPDEST PUSH0 PUSH1 0x40 MLOAD DUP1 PUSH1 0x40 ADD PUSH1 0x40 MSTORE DUP1 DUP5 DUP2 MSTORE PUSH1 0x20 ADD DUP4 DUP2 MSTORE POP SWAP1 DUP1 PUSH1 0x1 DUP2 SLOAD ADD DUP1 DUP3 SSTORE DUP1 SWAP2 POP POP PUSH1 0x1 SWAP1 SUB SWAP1 PUSH0 MSTORE PUSH1 0x20 PUSH0 KECCAK256 SWAP1 PUSH1 0x2 MUL ADD PUSH0 SWAP1 SWAP2 SWAP1 SWAP2 SWAP1 SWAP2 POP PUSH0 DUP3 ADD MLOAD DUP2 PUSH0 ADD SWAP1 DUP2 PUSH2 0x215 SWAP2 SWAP1 PUSH2 0x7E1 JUMP JUMPDEST POP PUSH1 0x20 DUP3 ADD MLOAD DUP2 PUSH1 0x1 ADD SSTORE POP POP POP POP JUMP JUMPDEST PUSH0 DUP1 DUP1 SLOAD SWAP1 POP SWAP1 POP SWAP1 JUMP JUMPDEST PUSH0 DUP2 DUP2 SLOAD DUP2 LT PUSH2 0x23F JUMPI PUSH0 DUP1 REVERT JUMPDEST SWAP1 PUSH0 MSTORE PUSH1 0x20 PUSH0 KECCAK256 SWAP1 PUSH1 0x2 MUL ADD PUSH0 SWAP2 POP SWAP1 POP DUP1 PUSH0 ADD DUP1 SLOAD PUSH2 0x25E SWAP1 PUSH2 0x614 JUMP JUMPDEST DUP1 PUSH1 0x1F ADD PUSH1 0x20 DUP1 SWAP2 DIV MUL PUSH1 0x20 ADD PUSH1 0x40 MLOAD SWAP1 DUP2 ADD PUSH1 0x40 MSTORE DUP1 SWAP3 SWAP2 SWAP1 DUP2 DUP2 MSTORE PUSH1 0x20 ADD DUP3 DUP1 SLOAD PUSH2 0x28A SWAP1 PUSH2 0x614 JUMP JUMPDEST DUP1 ISZERO PUSH2 0x2D5 JUMPI DUP1 PUSH1 0x1F LT PUSH2 0x2AC JUMPI PUSH2 0x100 DUP1 DUP4 SLOAD DIV MUL DUP4 MSTORE SWAP2 PUSH1 0x20 ADD SWAP2 PUSH2 0x2D5 JUMP JUMPDEST DUP3 ADD SWAP2 SWAP1 PUSH0 MSTORE PUSH1 0x20 PUSH0 KECCAK256 SWAP1 JUMPDEST DUP2 SLOAD DUP2 MSTORE SWAP1 PUSH1 0x1 ADD SWAP1 PUSH1 0x20 ADD DUP1 DUP4 GT PUSH2 0x2B8 JUMPI DUP3 SWAP1 SUB PUSH1 0x1F AND DUP3 ADD SWAP2 JUMPDEST POP POP POP POP POP SWAP1 DUP1 PUSH1 0x1 ADD SLOAD SWAP1 POP DUP3 JUMP JUMPDEST PUSH0 PUSH1 0x40 MLOAD SWAP1 POP SWAP1 JUMP JUMPDEST PUSH0 DUP1 REVERT JUMPDEST PUSH0 DUP1 REVERT JUMPDEST PUSH0 DUP2 SWAP1 POP SWAP2 SWAP1 POP JUMP JUMPDEST PUSH2 0x308 DUP2 PUSH2 0x2F6 JUMP JUMPDEST DUP2 EQ PUSH2 0x312 JUMPI PUSH0 DUP1 REVERT JUMPDEST POP JUMP JUMPDEST PUSH0 DUP2 CALLDATALOAD SWAP1 POP PUSH2 0x323 DUP2 PUSH2 0x2FF JUMP JUMPDEST SWAP3 SWAP2 POP POP JUMP JUMPDEST PUSH0 PUSH1 0x20 DUP3 DUP5 SUB SLT ISZERO PUSH2 0x33E JUMPI PUSH2 0x33D PUSH2 0x2EE JUMP JUMPDEST JUMPDEST PUSH0 PUSH2 0x34B DUP5 DUP3 DUP6 ADD PUSH2 0x315 JUMP JUMPDEST SWAP2 POP POP SWAP3 SWAP2 POP POP JUMP JUMPDEST PUSH0 DUP2 MLOAD SWAP1 POP SWAP2 SWAP1 POP JUMP JUMPDEST PUSH0 DUP3 DUP3 MSTORE PUSH1 0x20 DUP3 ADD SWAP1 POP SWAP3 SWAP2 POP POP JUMP JUMPDEST PUSH0 JUMPDEST DUP4 DUP2 LT ISZERO PUSH2 0x38B JUMPI DUP1 DUP3 ADD MLOAD DUP2 DUP5 ADD MSTORE PUSH1 0x20 DUP2 ADD SWAP1 POP PUSH2 0x370 JUMP JUMPDEST PUSH0 DUP5 DUP5 ADD MSTORE POP POP POP POP JUMP JUMPDEST PUSH0 PUSH1 0x1F NOT PUSH1 0x1F DUP4 ADD AND SWAP1 POP SWAP2 SWAP1 POP JUMP JUMPDEST PUSH0 PUSH2 0x3B0 DUP3 PUSH2 0x354 JUMP JUMPDEST PUSH2 0x3BA DUP2 DUP6 PUSH2 0x35E JUMP JUMPDEST SWAP4 POP PUSH2 0x3CA DUP2 DUP6 PUSH1 0x20 DUP7 ADD PUSH2 0x36E JUMP JUMPDEST PUSH2 0x3D3 DUP2 PUSH2 0x396 JUMP JUMPDEST DUP5 ADD SWAP2 POP POP SWAP3 SWAP2 POP POP JUMP JUMPDEST PUSH2 0x3E7 DUP2 PUSH2 0x2F6 JUMP JUMPDEST DUP3 MSTORE POP POP JUMP JUMPDEST PUSH0 PUSH1 0x40 DUP3 ADD SWAP1 POP DUP2 DUP2 SUB PUSH0 DUP4 ADD MSTORE PUSH2 0x405 DUP2 DUP6 PUSH2 0x3A6 JUMP JUMPDEST SWAP1 POP PUSH2 0x414 PUSH1 0x20 DUP4 ADD DUP5 PUSH2 0x3DE JUMP JUMPDEST SWAP4 SWAP3 POP POP POP JUMP JUMPDEST PUSH0 DUP1 REVERT JUMPDEST PUSH0 DUP1 REVERT JUMPDEST PUSH32 0x4E487B7100000000000000000000000000000000000000000000000000000000 PUSH0 MSTORE PUSH1 0x41 PUSH1 0x4 MSTORE PUSH1 0x24 PUSH0 REVERT JUMPDEST PUSH2 0x459 DUP3 PUSH2 0x396 JUMP JUMPDEST DUP2 ADD DUP2 DUP2 LT PUSH8 0xFFFFFFFFFFFFFFFF DUP3 GT OR ISZERO PUSH2 0x478 JUMPI PUSH2 0x477 PUSH2 0x423 JUMP JUMPDEST JUMPDEST DUP1 PUSH1 0x40 MSTORE POP POP POP JUMP JUMPDEST PUSH0 PUSH2 0x48A PUSH2 0x2E5 JUMP JUMPDEST SWAP1 POP PUSH2 0x496 DUP3 DUP3 PUSH2 0x450 JUMP JUMPDEST SWAP2 SWAP1 POP JUMP JUMPDEST PUSH0 PUSH8 0xFFFFFFFFFFFFFFFF DUP3 GT ISZERO PUSH2 0x4B5 JUMPI PUSH2 0x4B4 PUSH2 0x423 JUMP JUMPDEST JUMPDEST PUSH2 0x4BE DUP3 PUSH2 0x396 JUMP JUMPDEST SWAP1 POP PUSH1 0x20 DUP2 ADD SWAP1 POP SWAP2 SWAP1 POP JUMP JUMPDEST DUP3 DUP2 DUP4 CALLDATACOPY PUSH0 DUP4 DUP4 ADD MSTORE POP POP POP JUMP JUMPDEST PUSH0 PUSH2 0x4EB PUSH2 0x4E6 DUP5 PUSH2 0x49B JUMP JUMPDEST PUSH2 0x481 JUMP JUMPDEST SWAP1 POP DUP3 DUP2 MSTORE PUSH1 0x20 DUP2 ADD DUP5 DUP5 DUP5 ADD GT ISZERO PUSH2 0x507 JUMPI PUSH2 0x506 PUSH2 0x41F JUMP JUMPDEST JUMPDEST PUSH2 0x512 DUP5 DUP3 DUP6 PUSH2 0x4CB JUMP JUMPDEST POP SWAP4 SWAP3 POP POP POP JUMP JUMPDEST PUSH0 DUP3 PUSH1 0x1F DUP4 ADD SLT PUSH2 0x52E JUMPI PUSH2 0x52D PUSH2 0x41B JUMP JUMPDEST JUMPDEST DUP2 CALLDATALOAD PUSH2 0x53E DUP5 DUP3 PUSH1 0x20 DUP7 ADD PUSH2 0x4D9 JUMP JUMPDEST SWAP2 POP POP SWAP3 SWAP2 POP POP JUMP JUMPDEST PUSH0 DUP1 PUSH1 0x40 DUP4 DUP6 SUB SLT ISZERO PUSH2 0x55D JUMPI PUSH2 0x55C PUSH2 0x2EE JUMP JUMPDEST JUMPDEST PUSH0 DUP4 ADD CALLDATALOAD PUSH8 0xFFFFFFFFFFFFFFFF DUP2 GT ISZERO PUSH2 0x57A JUMPI PUSH2 0x579 PUSH2 0x2F2 JUMP JUMPDEST JUMPDEST PUSH2 0x586 DUP6 DUP3 DUP7 ADD PUSH2 0x51A JUMP JUMPDEST SWAP3 POP POP PUSH1 0x20 PUSH2 0x597 DUP6 DUP3 DUP7 ADD PUSH2 0x315 JUMP JUMPDEST SWAP2 POP POP SWAP3 POP SWAP3 SWAP1 POP JUMP JUMPDEST PUSH0 PUSH1 0x20 DUP3 ADD SWAP1 POP PUSH2 0x5B4 PUSH0 DUP4 ADD DUP5 PUSH2 0x3DE JUMP JUMPDEST SWAP3 SWAP2 POP POP JUMP JUMPDEST PUSH32 0x4E487B7100000000000000000000000000000000000000000000000000000000 PUSH0 MSTORE PUSH1 0x32 PUSH1 0x4 MSTORE PUSH1 0x24 PUSH0 REVERT JUMPDEST PUSH32 0x4E487B7100000000000000000000000000000000000000000000000000000000 PUSH0 MSTORE PUSH1 0x22 PUSH1 0x4 MSTORE PUSH1 0x24 PUSH0 REVERT JUMPDEST PUSH0 PUSH1 0x2 DUP3 DIV SWAP1 POP PUSH1 0x1 DUP3 AND DUP1 PUSH2 0x62B JUMPI PUSH1 0x7F DUP3 AND SWAP2 POP JUMPDEST PUSH1 0x20 DUP3 LT DUP2 SUB PUSH2 0x63E JUMPI PUSH2 0x63D PUSH2 0x5E7 JUMP JUMPDEST JUMPDEST POP SWAP2 SWAP1 POP JUMP JUMPDEST PUSH0 DUP2 SWAP1 POP DUP2 PUSH0 MSTORE PUSH1 0x20 PUSH0 KECCAK256 SWAP1 POP SWAP2 SWAP1 POP JUMP JUMPDEST PUSH0 PUSH1 0x20 PUSH1 0x1F DUP4 ADD DIV SWAP1 POP SWAP2 SWAP1 POP JUMP JUMPDEST PUSH0 DUP3 DUP3 SHL SWAP1 POP SWAP3 SWAP2 POP POP JUMP JUMPDEST PUSH0 PUSH1 0x8 DUP4 MUL PUSH2 0x6A0 PUSH32 0xFFFFFFFFFFFFFFFFFFFFFFFFFFFFFFFFFFFFFFFFFFFFFFFFFFFFFFFFFFFFFFFF DUP3 PUSH2 0x665 JUMP JUMPDEST PUSH2 0x6AA DUP7 DUP4 PUSH2 0x665 JUMP JUMPDEST SWAP6 POP DUP1 NOT DUP5 AND SWAP4 POP DUP1 DUP7 AND DUP5 OR SWAP3 POP POP POP SWAP4 SWAP3 POP POP POP JUMP JUMPDEST PUSH0 DUP2 SWAP1 POP SWAP2 SWAP1 POP JUMP JUMPDEST PUSH0 PUSH2 0x6E5 PUSH2 0x6E0 PUSH2 0x6DB DUP5 PUSH2 0x2F6 JUMP JUMPDEST PUSH2 0x6C2 JUMP JUMPDEST PUSH2 0x2F6 JUMP JUMPDEST SWAP1 POP SWAP2 SWAP1 POP JUMP JUMPDEST PUSH0 DUP2 SWAP1 POP SWAP2 SWAP1 POP JUMP JUMPDEST PUSH2 0x6FE DUP4 PUSH2 0x6CB JUMP JUMPDEST PUSH2 0x712 PUSH2 0x70A DUP3 PUSH2 0x6EC JUMP JUMPDEST DUP5 DUP5 SLOAD PUSH2 0x671 JUMP JUMPDEST DUP3 SSTORE POP POP POP POP JUMP JUMPDEST PUSH0 SWAP1 JUMP JUMPDEST PUSH2 0x726 PUSH2 0x71A JUMP JUMPDEST PUSH2 0x731 DUP2 DUP5 DUP5 PUSH2 0x6F5 JUMP JUMPDEST POP POP POP JUMP JUMPDEST JUMPDEST DUP2 DUP2 LT ISZERO PUSH2 0x754 JUMPI PUSH2 0x749 PUSH0 DUP3 PUSH2 0x71E JUMP JUMPDEST PUSH1 0x1 DUP2 ADD SWAP1 POP PUSH2 0x737 JUMP JUMPDEST POP POP JUMP JUMPDEST PUSH1 0x1F DUP3 GT ISZERO PUSH2 0x799 JUMPI PUSH2 0x76A DUP2 PUSH2 0x644 JUMP JUMPDEST PUSH2 0x773 DUP5 PUSH2 0x656 JUMP JUMPDEST DUP2 ADD PUSH1 0x20 DUP6 LT ISZERO PUSH2 0x782 JUMPI DUP2 SWAP1 POP JUMPDEST PUSH2 0x796 PUSH2 0x78E DUP6 PUSH2 0x656 JUMP JUMPDEST DUP4 ADD DUP3 PUSH2 0x736 JUMP JUMPDEST POP POP JUMPDEST POP POP POP JUMP JUMPDEST PUSH0 DUP3 DUP3 SHR SWAP1 POP SWAP3 SWAP2 POP POP JUMP JUMPDEST PUSH0 PUSH2 0x7B9 PUSH0 NOT DUP5 PUSH1 0x8 MUL PUSH2 0x79E JUMP JUMPDEST NOT DUP1 DUP4 AND SWAP2 POP POP SWAP3 SWAP2 POP POP JUMP JUMPDEST PUSH0 PUSH2 0x7D1 DUP4 DUP4 PUSH2 0x7AA JUMP JUMPDEST SWAP2 POP DUP3 PUSH1 0x2 MUL DUP3 OR SWAP1 POP SWAP3 SWAP2 POP POP JUMP JUMPDEST PUSH2 0x7EA DUP3 PUSH2 0x354 JUMP JUMPDEST PUSH8 0xFFFFFFFFFFFFFFFF DUP2 GT ISZERO PUSH2 0x803 JUMPI PUSH2 0x802 PUSH2 0x423 JUMP JUMPDEST JUMPDEST PUSH2 0x80D DUP3 SLOAD PUSH2 0x614 JUMP JUMPDEST PUSH2 0x818 DUP3 DUP3 DUP6 PUSH2 0x758 JUMP JUMPDEST PUSH0 PUSH1 0x20 SWAP1 POP PUSH1 0x1F DUP4 GT PUSH1 0x1 DUP2 EQ PUSH2 0x849 JUMPI PUSH0 DUP5 ISZERO PUSH2 0x837 JUMPI DUP3 DUP8 ADD MLOAD SWAP1 POP JUMPDEST PUSH2 0x841 DUP6 DUP3 PUSH2 0x7C6 JUMP JUMPDEST DUP7 SSTORE POP PUSH2 0x8A8 JUMP JUMPDEST PUSH1 0x1F NOT DUP5 AND PUSH2 0x857 DUP7 PUSH2 0x644 JUMP JUMPDEST PUSH0 JUMPDEST DUP3 DUP2 LT ISZERO PUSH2 0x87E JUMPI DUP5 DUP10 ADD MLOAD DUP3 SSTORE PUSH1 0x1 DUP3 ADD SWAP2 POP PUSH1 0x20 DUP6 ADD SWAP5 POP PUSH1 0x20 DUP2 ADD SWAP1 POP PUSH2 0x859 JUMP JUMPDEST DUP7 DUP4 LT ISZERO PUSH2 0x89B JUMPI DUP5 DUP10 ADD MLOAD PUSH2 0x897 PUSH1 0x1F DUP10 AND DUP3 PUSH2 0x7AA JUMP JUMPDEST DUP4 SSTORE POP JUMPDEST PUSH1 0x1 PUSH1 0x2 DUP9 MUL ADD DUP9 SSTORE POP POP POP JUMPDEST POP POP POP POP POP POP JUMP INVALID LOG2 PUSH5 0x6970667358 0x22 SLT KECCAK256 0xEC 0xE5 0xED 0x27 BLOBHASH RETURNDATASIZE SWAP16 0x2B GASLIMIT 0x2E 0xB9 0x22 SGT 0xAB 0xAC DUP16 STATICCALL SWAP16 0xEF 0xBE 0xA9 0xE0 0xFC DUP7 0xD LOG0 0xDE MSTORE 0x27 0xE7 SWAP11 0xFC PUSH5 0x736F6C6343 STOP ADDMOD XOR STOP CALLER "
				},
				"gasEstimates": {
					"creation": {
						"codeDepositCost": "455600",
						"executionCost": "491",
						"totalCost": "456091"
					},
					"external": {
						"addItem(string,uint256)": "infinite",
						"getItem(uint256)": "infinite",
						"getItemCount()": "2462",
						"items(uint256)": "infinite"
					}
				},
				"methodIdentifiers": {
					"addItem(string,uint256)": "62d6bbdf",
					"getItem(uint256)": "3129e773",
					"getItemCount()": "7749cf23",
					"items(uint256)": "bfb231d2"
				}
			},
			"storageLayout": {
				"storage": [
					{
						"astId": 10,
						"contract": "contracts/array.sol:SimpleList",
						"label": "items",
						"offset": 0,
						"slot": "0",
						"type": "t_array(t_struct(Item)6_storage)dyn_storage"
					}
				],
				"types": {
					"t_array(t_struct(Item)6_storage)dyn_storage": {
						"base": "t_struct(Item)6_storage",
						"encoding": "dynamic_array",
						"label": "struct SimpleList.Item[]",
						"numberOfBytes": "32"
					},
					"t_string_storage": {
						"encoding": "bytes",
						"label": "string",
						"numberOfBytes": "32"
					},
					"t_struct(Item)6_storage": {
						"encoding": "inplace",
						"label": "struct SimpleList.Item",
						"members": [
							{
								"astId": 3,
								"contract": "contracts/array.sol:SimpleList",
								"label": "name",
								"offset": 0,
								"slot": "0",
								"type": "t_string_storage"
							},
							{
								"astId": 5,
								"contract": "contracts/array.sol:SimpleList",
								"label": "quantity",
								"offset": 0,
								"slot": "1",
								"type": "t_uint256"
							}
						],
						"numberOfBytes": "64"
					},
					"t_uint256": {
						"encoding": "inplace",
						"label": "uint256",
						"numberOfBytes": "32"
					}
				}
			},
			"userdoc": {
				"kind": "user",
				"methods": {},
				"version": 1
			}
		}
	}
}